:020000040800F2
:10000000000002209D280008BD240008BF2400082D
:10001000C1240008C3240008C52400080000000013
:10002000000000000000000000000000C7240008DD
:10003000C924000800000000CB240008CD240008DB
:10004000ED280008ED280008ED280008ED2800083C
:10005000ED280008ED280008ED280008ED2800082C
:10006000ED280008ED280008ED280008ED2800081C
:10007000ED280008ED280008ED280008ED2800080C
:10008000ED280008ED280008ED280008ED280008FC
:10009000ED280008ED280008ED280008ED280008EC
:1000A000ED280008ED280008ED280008ED280008DC
:1000B000D5240008ED280008ED280008ED280008E8
:1000C000ED280008ED280008ED280008ED280008BC
:1000D000ED280008ED280008ED280008ED280008AC
:1000E000ED280008ED280008ED280008ED2800089C
:1000F000ED280008ED280008ED280008ED2800088C
:10010000ED280008ED280008ED280008ED2800087B
:10011000ED280008ED280008ED280008ED2800086B
:10012000ED280008ED280008ED280008ED2800085B
:10013000ED2800080000000000000000ED28000885
:10014000ED280008ED280008ED280008ED2800083B
:10015000ED280008ED280008ED280008ED2800082B
:10016000ED280008ED280008ED280008ED2800081B
:10017000ED280008ED280008ED2800080000000028
:1001800000000000ED280008000000000000000052
:10019000ED2800080000000000000000ED28000825
:1001A000000000000000000000000000ED28000832
:1001B000ED280008ED280008ED280008ED280008CB
:0401C000ED2800081E
:1001C400044B05481B1A062B02D9044B03B11847EC
:1001D400704700BF4F0800204C08002000000000BA
:1001E40005490648091A891001EBD171491002D05A
:1001F400034B03B1184770474C0800204C080020FB
:100204000000000010B5064C237843B9FFF7D8FF6F
:10021400044B13B10448AFF300800123237010BDD5
:100224004C08002000000000343F000808B5084BCB
:100234001BB108490848AFF300800848036813B9A4
:10024400BDE80840CCE7064B002BF9D09847F7E708
:100254000000000050080020343F00084C08002033
:100264000000000053B94AB9002908BF00281CBF88
:100274004FF0FF314FF0FF3001F0F6B8ADF1080C4C
:100284006DE904CE00F006F8DDF804E0DDE90223B0
:1002940004B070472DE9F0478C460D460446089E8D
:1002A400002B51D18A4217466DD9B2FA82FEBEF1B3
:1002B400000F0BD0CEF1200C01FA0EF520FA0CFC45
:1002C40002FA0EF74CEA050C00FA0EF44FEA174A4C
:1002D400250CBCFBFAF81FFA87F90AFB18CC45EA8F
:1002E4000C4508FB09F3AB420AD9ED1908F1FF32BA
:1002F40080F02381AB4240F22081A8F102083D4402
:10030400ED1AA4B2B5FBFAF00AFB105544EA054411
:1003140000FB09F9A14509D9E41900F1FF3380F084
:100324000A81A14540F2078102383C44A4EB090448
:1003340040EA08400021002E61D024FA0EF4002384
:1003440034607360BDE8F0878B4207D9002E54D027
:10035400002186E821000846BDE8F087B3FA83F15E
:10036400002940F08E80AB4202D3824200F2FA8030
:10037400841A65EB03050120AC46002E3FD086E8C5
:100384001010BDE8F08712B90127B7FBF2F7B7FAEE
:1003940087FEBEF1000F34D1EB1B3A0C1FFA87FC29
:1003A4000121B3FBF2F8250C02FB183345EA03459F
:1003B4000CFB08F3AB4207D9ED1908F1FF3002D268
:1003C400AB4200F2D1808046ED1AA3B2B5FBF2F045
:1003D40002FB105543EA05440CFB00FCA44507D975
:1003E400E41900F1FF3302D2A44500F2B8801846A4
:1003F400A4EB0C0440EA08409DE731463046BDE8D2
:10040400F087CEF1200405FA0EF307FA0EF720FA6E
:1004140004F83A0C25FA04F448EA0308B4FBF2F1B0
:100424004FEA184502FB11441FFA87FC45EA0445CC
:1004340001FB0CF3AB4200FA0EF409D9ED1901F1FA
:10044400FF3080F08A80AB4240F2878002393D441D
:10045400EB1A1FFA88F5B3FBF2F002FB103345EAFE
:10046400034500FB0CF3AB4207D9ED1900F1FF384B
:100474006FD2AB426DD902383D44EB1A40EA0141D8
:100484008FE7C1F1200722FA07F88B4005FA01F43F
:1004940048EA030320FA07FE4FEA134CFD404EEAF4
:1004A400040EB5FBFCF94FEA1E440CFB19551FFA68
:1004B40083F844EA054509FB08F4AC4202FA01F268
:1004C40000FA01FA08D9ED1809F1FF3043D2AC4221
:1004D40041D9A9F102091D442D1B1FFA8EFEB5FB5B
:1004E400FCF00CFB10554EEA054400FB08F8A0454F
:1004F40007D9E41800F1FF3529D2A04527D90238DD
:100504001C4440EA0940A4EB0804A0FB02894C45C2
:10051400C6464D4615D312D056B1BAEB0E0364EB62
:10052400050404FA07F7CB401F43CC4037607460DE
:100534000021BDE8F0871846F8E69046E0E6C2459B
:10054400EAD2B8EB020E69EB03050138E4E728466A
:10055400D7E7404691E78146BEE7014678E702388F
:100564003C4445E7084608E7A8F102083D442BE768
:1005740003685A004CBF43F0004323F0004318447F
:10058400704700BF61B32DE9F84F01F1FF3A90467F
:100594000646D146002707EB090404EBD474641023
:1005A400E50071190846FFF7E3FFA245834605F10C
:1005B4000800304409D0FFF7DBFFC34500F1FF30EA
:1005C40005D8404509D2671CE5E7C34505D9A742CC
:1005D40002D004F1FF39DEE700210846BDE8F88FB8
:1005E40008467047012807D0022807D0044B00288A
:1005F4000CBF1846002070470248704702487047F5
:10060400ED0C0008F10C0008F50C000830B5244B83
:1006140083B004468D1E7BB301A92846AFF3008046
:1006240020B301992A46FFF7ADFF0146F0B1FFF769
:100634009FFF4B68A064012B12D0002B01F1040032
:1006440020DBFFF795FF0023E06423650368002B9C
:100654001CDBFFF78DFF00232061184603B030BD7B
:10066400002323610523184603B030BD0023236112
:100674000923184603B030BD0A490B48091AC910AA
:100684000191CFE70123E0642365DFE7C3F303604F
:10069400FFF7A8FF0028206114BF00230923DCE72B
:1006A4000000000054400008843F00080368DA0793
:1006B40010B5044606D49B0700F1480009D500F0A4
:1006C40051FC2368590709D51A070ED5DB0613D543
:1006D40010BD00F03FFC23685907F5D404F1D000A5
:1006E40000F048FC23681A07F0D404F5A87000F061
:1006F40049FC2368DB06EBD404F5E870BDE8104040
:1007040000F084BC036803B103441846704700BF7B
:1007140009207047704700BF70B504460D4608E0D5
:100724002B6C63612A4623692146012098470828D7
:1007340008D1296C2046FFF769FF06460028EFD050
:1007440000F094FE0728FBD13046296CFFF7E2FF46
:10075400281D00F0F3FB00BF2DE9F0470C1D0546F2
:1007640092460FCCADF5727D03AE0FC60FCC0FC60B
:100774000FCC0FC694E80F0002ACD5F80C80D5F866
:10078400189086E80F0000232846216C2360FFF7A9
:100794003DFFBAF1000F074614BF0A2609267FB1B0
:1007A400A36B46F010018DE810022A466364012011
:1007B4002B46C04778BB38460DF5727DBDE8F087FF
:1007C400236C6B614FF4F07221467AA800F0A4FE0A
:1007D4002B697AAA294630469847889B82468DE839
:1007E4001002314663642A462B460120C04790B963
:1007F4004FF4F0727AA9204600F08EFEBAF1080F89
:1008040006D1216C2846FFF701FF09260746C6E7F3
:10081400BAF1070F05D0092738460DF5727DBDE8FA
:10082400F0873846216CFFF775FF03A800F086FBBC
:10083400406C7047F0B5CB6B0B640E1D0F4604463D
:100844000FCEF9B001AD0FC50FCE0FC50FCE0FC53A
:1008540096E80F004FF0FF3685E80F00009606E09B
:1008640023696A46214698470828054608D1109905
:100874002046FFF7CBFE0028F2D0092079B0F0BD66
:100884006846FFF713FF062DF7D139462046FFF7D8
:1008940043FF00BF30B4DD6BC160826119461D6443
:1008A400002230BC58E700BF70B5C66843690B64CA
:1008B40026B10122FFF750FF00F0D8FD03690A4674
:1008C40004460D46014602209847072807D0082809
:1008D40003D129462046FFF71FFF00F0C7FD30462D
:1008E400296CFFF717FF281D00F028FBC2681AB116
:1008F400CA6B0A6400222FE79CE700BF704700BF61
:10090400836813B1014601201847704700B50429D4
:1009140007D8DFE801F00309060909000BB90F2A1B
:1009240005D902205DF804FB01205DF804FB00EB0F
:10093400820218465368019A13605DF804FB00BFF5
:1009440010B584B0002303AC0A4600941946FFF79F
:10095400DDFF039804B010BD00B5042907D8DFE813
:1009640001F00309060909000BB90F2A05D9022071
:100974005DF804FB01205DF804FB019900EB8202A1
:100984000968516018465DF804FB00BF10B584B0D7
:1009940004AC002344F8042D0A4600941946FFF7DA
:1009A400DBFF04B010BD00BFF0B5D36B1364151D9D
:1009B40007460E460FCDADF50F7D17AC0FC40FCD16
:1009C4000FC40FCD0FC495E80F004FF0FF3584E836
:1009D4000F00169510E016A8FFF7D8FF314616A8A9
:1009E400B84716AA694678B9049B08209847052891
:1009F40004460AD0092807D026996846FFF706FE60
:100A04006A460C210028E6D0092416A8FFF74EFEFA
:100A140020460DF50F7DF0BD2DE9F04F0D46C96C54
:100A24008BB00C1D096807919146089400F0030BE4
:100A34001E46002B60D10902032307918DF825601F
:100A44008DF824302B6DBBF1020F08BFAC6B13F093
:100A5400010340D1019300F008030393D4F800800C
:100A6400B8F1000F39D0022E43D0B4F80080678863
:100A74000434AB6C27F0010A0F2148469A44FFF76F
:100A84005FFF824533D828F001039A4450452CBFB8
:100A9400002001207F0007F0020708F0010847EA60
:100AA4000807012F3ED035D3022F1CD1236823F031
:100AB40000420292BBF1000F76D128B103990029BC
:100AC4007ED0002A00F0A680002B77DB029B013346
:100AD40004EB8304C2E700230193022E3EDDFFF7FB
:100AE40017FE002840D009200BB0BDE8F08F00208D
:100AF400D0E767680834BCE7022BA3DC0B0CDAB23E
:100B040009048DF82530022304EB820407918DF843
:100B1400243097E7BBF1000F02D0002840F0BD80DD
:100B240004349BE7BBF1000F25D1A8B194E80C0075
:100B3400991C4FEAD272D6D005F1580101330691BF
:100B440000F0A380201DFFF7DDFD06AB014628461B
:100B5400AFF30080002877D108347FE707A948461F
:100B640000F0EEFA0028BED1019B002B5CD10820D6
:100B74000BB0BDE8F08F0D2148462F6AFFF7E0FE69
:100B84008742E9D1AB6A9C42E6D12046FFF7F0FCEC
:100B94000F2102464846FFF7F9FE48462A4600213F
:100BA400FFF7F4FE07209FE70D2148462F6AFFF761
:100BB400C7FE874258D02368002B87DA043485E7C0
:100BC400029B3BB305F15803271DCDF810B0DDF8A7
:100BD4000C80DDF808A00596A3461C4602E0B24549
:100BE400B04616D038460694FFF78CFD06AB014696
:100BF40000222846AFF3008008F1010604370028DC
:100C0400EDD0029B059E43455C46DDF810B0D2D181
:100C140000E05C4648460D21FFF792FE069B2862E1
:100C2400AC626B6206205FE70F214846FFF788FE3F
:100C34000E2102464846FFF7A9FE4846294A0F21DD
:100C4400FFF7A4FE07204FE707460D214846FFF7AC
:100C540077FE022F28621DD12B46069A43F82C2FCB
:100C64006B62AC6206203FE7AB6A9C42A3D10422CC
:100C74000027A3180299A962EF622A636B632368B1
:100C8400BB421DDB0123019320E748460D21FFF7FA
:100C940057FE2862069B6B62E3E72046FFF768FC79
:100CA40004340646AC632846AFF3008000283FF4C2
:100CB4001AAF484632460F21FFF768FE072013E7B4
:100CC4000846013004EB8000FFF752FC0F21024676
:100CD4004846FFF75BFE48462A463946FFF756FE6C
:100CE400072001E700000000002395E6012393E6B6
:100CF400022391E6F0B50446C5B004290DD8DFE817
:100D040001F053030C310F00012B4FEA124695B248
:100D140062D17219102A40F29B80022045B0F0BDC6
:100D2400002BFAD1102AF8D82368D80600F1C6801F
:100D340022AE3046019200F073F9A06B019A0023B1
:100D4400012505FA03F1114203D0016846F8231086
:100D540004300133042BF4D1A063304600F056F97B
:100D64000020DBE7032BD8D1150C97B2EB19102B1D
:100D7400D3D823681E0700F1B58022AE304600F0B8
:100D840023F9ED00A36B4FB1043D711903EBC700C8
:100D940053F8042B41F8042F8342F9D13046A3635E
:100DA40000F0F0F80020B9E7002BB6D1A56B97B29C
:100DB400201D012606FA03F1394203F1010302D092
:100DC400296801600435102B00F10400F2D112F4FB
:100DD40000503BD1A563A1E7052B9ED17719202FA5
:100DE4009BD80F2E66D92F46002D3AD12A460027CC
:100DF400002AA06B72DD00EBC202014644A800EB9E
:100E0400C6008C3851F8045B40F8045F9142F9D174
:100E1400084697B1102E324644A938BF102201EB80
:100E2400C202A2F5C4727900043A00EB810150F8C1
:100E3400045B42F8045F8842F9D1012B48D00F2E9D
:100E4400A16333D917B102A800F094F8002065E734
:100E54000F2E3FF662AF00272268D10717D4002F68
:100E640060D02268510745D4012B4DD00F2E06D8EF
:100E740022A8019300F07AF8019B002FB6D002A8B3
:100E8400019300F07BF8019BC6F11002B0E722F059
:100E94000101052B2160019320463BD022F003027F
:100EA40040F8482B00F05AF8019BD8E722A800F03C
:100EB40059F8C7E7102FCED9103FCDE723F0100320
:100EC400236004F5E870019200F0AAF8019A2FE774
:100ED4000431A16322A800F03DF8B7E7002F99D1AF
:100EE4000146AAE723F00803236004F5A87000F084
:100EF4006BF842E7204622F0040240F8D02B01931D
:100F040000F03CF8019BAFE722A8019300F026F81B
:100F1400019BB9E741F0020140F8481B00F026F8B4
:100F2400019B9CE7012B03D00F2E3FF65FAF9FE799
:100F340022A8019300F012F8019B57E700F1340155
:100F440091E838009C46A6464CF8045D90E8FF0FF3
:100F5400E54600BD90EC210B704700BF80EC210BEF
:100F6400704700BF90EC200B704700BF80EC200B53
:100F7400704700BFD0EC200B704700BFC0EC200BC3
:100F8400704700BFF0EC0201F0EC0211F0EC02211A
:100F9400F0EC0231F0EC0241F0EC0251F0EC0261B1
:100FA400F0EC0271F0EC0281F0EC0291F0EC02A1A1
:100FB400F0EC02B1F0EC02C1F0EC02D1F0EC02E191
:100FC400F0EC02F1704700BFE0EC0201E0EC02112A
:100FD400E0EC0221E0EC0231E0EC0241E0EC0251F1
:100FE400E0EC0261E0EC0271E0EC0281E0EC0291E1
:100FF400E0EC02A1E0EC02B1E0EC02C1E0EC02D1D1
:10100400E0EC02E1E0EC02F1704700BFB0FC0181CA
:10101400B0FC0191B0FC01A1B0FC01B1704700BF6C
:10102400A0FC0181A0FC0191A0FC01A1A0FC01B1E4
:10103400704700BFEC4600B52DE900502DE9FF1FB5
:101044004FF000032DE90C0001A9FFF7F3FBDDF8D5
:1010540040E012B0704700BFEC4600B52DE90050E7
:101064002DE9FF1F4FF000032DE90C0001A9FFF744
:101074001BFCDDF840E012B0704700BFEC4600B541
:101084002DE900502DE9FF1F4FF000032DE90C005E
:1010940001A9FFF72BFCDDF840E012B0704700BF58
:1010A400EC4600B52DE900502DE9FF1F4FF0000379
:1010B4002DE90C0001ABFFF7EDFBDDF840E012B0C9
:1010C400704700BFEC4600B52DE900502DE9FF1F25
:1010D4004FF000032DE90C0001AAFFF765FCDDF8D1
:1010E40040E012B0704700BF027A1AB9437A43B99C
:1010F400B02070470368013A02721A020260180EA7
:1011040070474268013B10B4437213680321141DF5
:1011140001721A024460026010BC180E704700BFCE
:1011240000B585B003AA0023009219460C22FFF7EC
:10113400EDFB039805B05DF804FB00BFF0E700BFCA
:101144002DE9F043064685B00F464FF000083846B7
:10115400FFF7CAFFB028044623D0050627D400238E
:101164000DF10C09194685000D22CDF8009030468A
:10117400FFF7CCFBEDB2039BCDF80090600605F1C0
:1011840004054CBF5D1BED18002319460D223046A3
:101194000395FFF7E1FB3846FFF7A6FFB0280446A6
:1011A400DBD1B8F1000F00F0958000201CE000F0C6
:1011B400F003802B5DD0902B19D0A02B2CD0B02B1A
:1011C4003FD0C02B6CD000F0F803D02B0BD100F033
:1011D4000702013242F40022052301213046FFF7C1
:1011E40089FD0028B3D0092005B0BDE8F08300F0E4
:1011F4000D030D2BF7D003AD002300F00F021946A9
:1012040000953046FFF782FB0023009519460D2216
:101214003046FFF7A1FB9AE7C24302F007034FF4FD
:101224007F621A41010702F47F624FF0000348BF56
:1012340042F4804219463046FFF75CFD0028D2D1C3
:1012440085E7B12857D0B22868D0B32800F095803C
:1012540000F0FC03B42BC6D000F0070201320123D6
:1012640042F4002219463046FFF744FD0028BAD163
:101274006DE73846FFF738FF24020443B4F5004F06
:10128400B1D024010023A2B219463046FFF732FD43
:101294000028A8D114F4004F18BF4FF0010856E7F6
:1012A400C6287DD0C72800F0868000F0F803C02B44
:1012B40000F09480C82800F09F80C92893D1384654
:1012C400FFF712FF020300F00F0002F47022013056
:1012D400024381E703AC43460E2241460094304664
:1012E400FFF714FB0094304643460F224146FFF7B4
:1012F40033FB404678E73846FFF7F6FE00283FF414
:1013040072AF10F0F0037FF46EAF02461946304618
:10131400FFF7F0FC00287FF466AF18E700230DF117
:101324000C090D221946CDF800903046FFF7EEFA6D
:101334003846FFF7D9FE02064FF002040CD5039B92
:1013440000F07F00A040034438460393FFF7CCFE2F
:10135400030604F10704F2D4039BCDF8009000F0D7
:101364007F02A24003F501740023144419460D22A0
:1013740030460394FFF7F0FAE9E63846FFF7B4FE87
:10138400010300F00F0001F47021421C01230A4301
:1013940030461946FFF7AEFC00287FF424AFD6E6AA
:1013A4003846FFF7A1FE010300F00F0001F470219D
:1013B400421C0323EBE73846FFF796FE00283FF470
:1013C40012AF10F0F0037FF40EAF02460421304652
:1013D400FFF790FC00287FF406AFB8E600F00F0298
:1013E4000132032342F4202219463046FFF782FCDF
:1013F40000287FF4F8AEAAE63846FFF775FE00F041
:10140400F00200F00F031032013343EA0232E3E644
:1014140010B5C36C84B05A6803208DF80C00DC79D5
:101424008DF80D4012020833084601A90192029377
:10143400FFF786FE04B010BD08B5FFF77FFE806C91
:1014440008BD00BF08B5FFF779FEC06CC37900EB97
:101454008300083008BD00BF08B500F007F800BFDE
:1014640008B5FFF7F9FF00BF704700BF08B50620B5
:1014740000F0D4F9012001F03DF800BF002301463B
:101484001A46184600F002BA014B1868704700BFAC
:101494000000002038B50A4C0A4D641BA4100AD081
:1014A40004F18043013B05EB8305013C55F8043905
:1014B4009847002CF9D1BDE8384002F03FBD00BF89
:1014C400604000085C40000870B50F4E0F4D761B5D
:1014D400B61018BF002405D0013455F8043B9847D2
:1014E400A642F9D10A4E0B4D761B02F021FDB6102F
:1014F40018BF002406D0013455F8043B9847A6428F
:10150400F9D170BD70BD00BF5440000854400008BC
:101514005C40000854400008844641EA000313F08C
:1015240003036DD1403A41D351F8043B40F8043BE6
:1015340051F8043B40F8043B51F8043B40F8043BA9
:1015440051F8043B40F8043B51F8043B40F8043B99
:1015540051F8043B40F8043B51F8043B40F8043B89
:1015640051F8043B40F8043B51F8043B40F8043B79
:1015740051F8043B40F8043B51F8043B40F8043B69
:1015840051F8043B40F8043B51F8043B40F8043B59
:1015940051F8043B40F8043B51F8043B40F8043B49
:1015A40051F8043B40F8043B403ABDD2303211D3E9
:1015B40051F8043B40F8043B51F8043B40F8043B29
:1015C40051F8043B40F8043B51F8043B40F8043B19
:1015D400103AEDD20C3205D351F8043B40F8043BE9
:1015E400043AF9D2043208D0D2071CBF11F8013BE7
:1015F40000F8013B01D30B8803806046704700BFAD
:10160400082A13D38B078DD010F003038AD0C3F1BB
:101614000403D21ADB071CBF11F8013B00F8013B9D
:1016240080D331F8023B20F8023B7BE7043AD9D35C
:10163400013A11F8013B00F8013BF9D20B78037031
:101644004B7843708B7883706046704770B486071C
:1016540046D0541E002A41D0CAB2034602E014F117
:10166400FF343BD303F8012B9D07F8D1032C2ED96B
:10167400CDB245EA05250F2C45EA054519D903F1F4
:1016840010022646103E0F2E42F8105C42F80C5C05
:1016940042F8085C42F8045C02F11002F2D8A4F1AA
:1016A400100222F00F0204F00F041032032C134432
:1016B4000DD91E462246043A032A46F8045BFAD89A
:1016C400221F22F003020432134404F003042CB159
:1016D400C9B21C4403F8011B9C42FBD170BC704787
:1016E40014460346C2E700BF10B58021044600F04B
:1016F4001FF9C4F8DC0240B1031F00227C3043F818
:10170400042F8342FBD1002010BD4FF0FF3010BDE9
:10171400D0F8DC320BB100207047E5E71F290AD866
:1017240010B5D0F8DC4284B054B154F8210044F828
:10173400212004B010BD162202604FF0FF30704724
:10174400039002920191FFF7CFFF28B9039B029AFD
:10175400D3F8DC420199E8E74FF0FF30E9E700BF36
:101764001F2928D820B5D0F8DC2282B00546AAB1BA
:1017740052F8213093B1012B0ED0581C07D000250C
:10178400084642F821509847284602B020BD162347
:1017940001202B6002B020BD0020F6E7284601910D
:1017A40000F072F801990A460146284602B0BDE8E5
:1017B400204000F055B8162303604FF0FF30704707
:1017C4001F2928D820B5D0F8DC3282B00546BBB139
:1017D40053F8212003EB810382B1501C0BD0012A62
:1017E40006D0002508461D609047284602B020BD5B
:1017F400032002B020BD022002B020BD0120F5E785
:101804000191FFF771FF18B9D5F8DC320199DFE7D0
:101814004FF0FF30EAE74FF0FF307047024B0146CC
:101824001868FFF79DBF00BF00000020024B0A4666
:1018340001461868FFF772BF00000020034B1868C8
:10184400D0F8DC320BB1002070474DE700000020D7
:10185400024B01461868FFF7B3BF00BF0000002029
:1018640038B50B46074C054611461846002323603D
:1018740000F038FE431C00D038BD2368002BFBD099
:101884002B6038BD6409002000F02ABE2DE9F04722
:10189400254C2568D5F8484106468846924699461F
:1018A400C4B360681F2817DC431C76B104EB8005C1
:1018B4000122C5F888A0D4F8881182401143022E71
:1018C400C4F88811C5F808911ED00230636044F84A
:1018D40020800020BDE8F087144B03B34FF4C87098
:1018E400AFF300800446D0B1D5F84831002780E832
:1018F4008800C5F8484138460123C4F88871C4F803
:101904008C71002EE1D0D1E7D4F88C110A43C4F8CD
:101914008C21DAE705F5A674C5F84841C1E74FF014
:10192400FF30BDE8F08700BF4C3F00080000000016
:101934002DE9F04F01F10B06162E83B0054640F257
:101944009E8036F0070600F1BD80B14200F2BA80F5
:1019540000F098FAB6F5FC7FC0F08F82730A00F0AD
:10196400B880042B00F27D81B30903F1390003F13F
:10197400380EC300C14F3B44A3F108015C68A14287
:1019840006D10CE0002A80F2AA80E468A14206D0C5
:10199400636823F003039A1B0F2AF3DD70463C6946
:1019A400DFF8DCE2744500F0A781636823F00303E9
:1019B4009A1B0F2A00F38C81002AC7F814E0C7F899
:1019C40010E080F29D80B3F5007F80F05D81DB083C
:1019D40003F1010C99107A6857F83C80C4F8088028
:1019E40001238B4007EBCC0113430839E1607B6092
:1019F40047F83C40C8F80C408210012494409C42B3
:101A040000F28B801C4206D120F0030064001C42CB
:101A140000F10400FAD007EBC009CC468046DCF89C
:101A24000C309C4507D169E1002A80F27781DB689C
:101A34009C4500F06381596821F003018A1B0F2A39
:101A4400F2DDD3F80CC0D3F8088001939C19284622
:101A540046F0010642F001055E60C8F80CC0CCF8FF
:101A640008807C613C61C4F80CE0C4F808E065605F
:101A74005A5000F009FA019B03F108041EE01029F2
:101A840020D800F0FFF91026182302207B4F3B4496
:101A9400A3F108025C68944200F039816368E1684C
:101AA400A66823F00303234428465A68F16042F0F1
:101AB40001028E605A6000F0E7F90834204603B052
:101AC400BDE8F08F00240C2320462B6003B0BDE852
:101AD400F08F40204FF400734FF03F0E4AE7234449
:101AE400E1685A68A66842F00102F16028468E60F7
:101AF4005A6000F0C9F90834204603B0BDE8F08FFD
:101B0400234428465A6842F001025A6000F0BCF9A6
:101B14000834204603B0BDE8F08FBC68636823F046
:101B24000309B14504D3A9EB06030F2B00F3898005
:101B3400DFF850A1D7F80824DAF80030013204EBBA
:101B4400090B06EB030800F0508108F5805808F1F2
:101B54000F0828F47F6828F00F084146284600F053
:101B640095F9421C034600F0F680834500F2F180AB
:101B7400DAF804204244CAF8042000F04781D7F878
:101B8400081401311BBFA3EB0B0B5A44C7F80834EC
:101B9400CAF8042013F0070200F00D81C2F1080115
:101BA400C2F580520B4408329844C8F30B08A2EBE8
:101BB400080841462846019300F068F9431C019B3C
:101BC40000F03E81C11A414441F00101DAF80420D9
:101BD400BB604244BC425960CAF8042016D0B9F133
:101BE4000F0F40F2F4806168A9F10C0323F007039E
:101BF400E01801F001014FF0050E19430F2B61604D
:101C0400C0F804E0C0F808E000F21281DAF82C30E1
:101C1400BC689A42DAF8303088BFCAF82C209A425D
:101C240088BFCAF83020626822F003029642A2EB11
:101C3400060301D80F2B04DC284600F025F9002404
:101C44003CE7A21943F0010346F00106666028460A
:101C5400BA60536000F018F90834204603B0BDE8B8
:101C6400F08F142B69D9542B00F29B80330B03F1B2
:101C74006F0003F16E0EC3007CE600BF3004002049
:101C840038040020680800205A0A042A5BD9142A60
:101C940000F2AE8002F15C01C9005B3207EB010C7B
:101CA4007958ACF1080C8C4500F088804A6822F021
:101CB4000302934273D289688C45F7D1DCF80C2077
:101CC4007B68E260C4F808C09460CCF80C4093E6EA
:101CD400A11946F0010C42F00106C4F804C02846DC
:101CE40079613961C1F80CE0C1F808E04E60E25056
:101CF40000F0CAF80834E1E67B687DE608F10108E3
:101D040018F0030F0CF1080C7FF489AE2DE0DC68A9
:101D1400A34208BF02303FF442AEBFE619441C465A
:101D24004A68DB6854F8086F42F001024A602846AA
:101D3400F3609E6000F0A8F8C0E603F15C0003F1D4
:101D44005B0EC30016E69A0902F13901C900383264
:101D5400A4E7BC4254D0BC68626822F0030265E781
:101D640059F80839994540F0868010F0030F00F1C6
:101D7400FF30F5D17B6823EA04037B6064009C4256
:101D84003FF6CBAE002C3FF4C8AE1C4240467FF475
:101D940042AE64001C4200F10400FAD03BE68C46DB
:101DA4008CE7B3F5AA7F15D8F30B03F1780003F1A0
:101DB400770EC300DEE54FF48052F5E67B6892109F
:101DC400012101FA02F213437B60624679E70122A2
:101DD4005A6031E740F25452934223D8B30C03F1D2
:101DE4007D0003F17C0EC300C4E508F11008B4E6DD
:101DF400542A29D81A0B02F16F01C9006E324DE73B
:101E0400DAF804204244CAF80420B8E6CBF30B0104
:101E140000297FF4B4AE09EB0803B96843F0010369
:101E24004B60F3E67F204FF47E734FF07E0EA1E506
:101E340004F10801284600F08BF8DAF80420E5E6FE
:101E440001214FF00008C1E6B2F5AA7F05D8DA0BEC
:101E540002F17801C900773220E740F254518A42F6
:101E640005D89A0C02F17D01C9007C3216E74FF4C3
:101E74007E717E2212E77B6880E7F00806F1080392
:101E840004E600BF704700BF704700BF38B5074C79
:101E9400002305460846236000F032FB431C00D0B3
:101EA40038BD2368002BFBD02B6038BD64090020AB
:101EB400F8B5244F0C460646FFF7E4FFBB685D689F
:101EC400C4F57E610F3125F00305294421F47F61B7
:101ED40021F00F01A1F58054B4F5805F07DB0021E8
:101EE4003046FFF7D3FFBB682B44984204D03046FA
:101EF400FFF7CAFF0020F8BD61423046FFF7C6FF76
:101F040001300DD0104BBA6819682D1B45F001053E
:101F14003046091B55601960FFF7B6FF0120F8BD74
:101F240000213046FFF7B2FFBA68831A0F2BDEDDBB
:101F3400064C0549246843F00103001B5360086004
:101F4400D5E700BF300400206C08002038080020CA
:101F5400002944D02DE9F0410D468046FFF792FF59
:101F640055F8047C694927F00103A5F10804E21837
:101F74008E685068B24220F003005ED0FE075060C5
:101F84000BD455F8087CE41B01F1080EA5687545CF
:101F94003B446DD0E768EF60BD6015186D68ED07D0
:101FA4003ED543F001026260E350B3F5007F17D2DF
:101FB400DB08581C9A104D6851F83070A760012353
:101FC400934001EBC0022B43083AE2604B6041F8B6
:101FD4003040FC604046BDE8F041FFF755BF704714
:101FE4005A0A042A52D89A0902F13907FF0002F169
:101FF4003805C819CA59083890424FD0516821F0A1
:1020040003018B4232D292689042F7D1C368A06038
:10201400E3609C60C4604046BDE8F041FFF734BF14
:1020240095683B4FBD42034440D0D068E86043F01C
:10203400010285606260E350B7E7FF07034407D4F9
:1020440055F8082CA41A1344A068E268C260906092
:10205400304A126843F00100934260608C60B9D347
:102064002D4B40461968FFF723FFB3E71046CDE731
:1020740011184968C90744D49168D268CA600344F6
:1020840043F0010091606060E350A3E7142A16D87E
:1020940002F15C07FF0002F15B05AAE7AA10012325
:1020A4004D6893402B434B600346B0E743F0010275
:1020B4004C610C61E560A5606260E3508AE7542AD4
:1020C40006D81A0B02F16F07FF0002F16E0590E7C4
:1020D400B2F5AA7F06D8DA0B02F17807FF0002F105
:1020E400770586E740F25450824206D89A0C02F1F2
:1020F4007D07FF0002F17C057BE74FF47E777E25A8
:1021040077E743F001016160136063E73004002066
:10211400380400203C08002068080020F0B58BB08B
:1021240000240594069407940894099401942A4B76
:102134001A6B42F004021A631A6B02F00402019251
:10214400019A02941A6B42F080021A631A6B02F02D
:1021540080020292029A03941A6B42F001021A63FB
:102164001A6B02F001020392039A04941A6B42F070
:1021740002021A631B6B03F002030493049B174FC0
:1021840022462021384600F05CFD154D22464FF4CE
:10219400E051284600F055FD4FF400530593114BD0
:1021A4000693079405A9284600F05AFC20230593BA
:1021B400012606960794089405A9384600F050FCB9
:1021C4004FF4E053059306960794089405A928460E
:1021D40000F046FC0BB0F0BD0038024000000240A5
:1021E400000802400000211072B6FEE700B595B069
:1021F4003422002107A8FFF729FA0023029303934E
:102204000493059306930093224A116C41F0805184
:102214001164126C02F080520092009A01931E4ADB
:10222400116841F440411160126802F44042019285
:10223400019A0222079201210A9110210B910D9219
:102244000E9308230F93B4231093119212921392B6
:1022540007A800F0D3FEB0B900F0FAFCA8B90F2328
:10226400029302230393002304934FF4A053059392
:102274004FF480530693052102A800F029FD30B9DC
:1022840015B05DF804FBFFF7AFFFFFF7ADFFFFF7F5
:10229400ABFF00BF003802400070004070B500F092
:1022A4004BFBFFF7A3FFFFF739FF00F0A3FA00F0A1
:1022B40033FA00F051F900216B4801F01FFC08B11A
:1022C400FFF792FF0421684801F018FC08B1FFF7FA
:1022D4008BFF0821644801F011FCD0B1FFF784FFA3
:1022E400624C01224FF48061204600F0AAFC0022D7
:1022F4004FF40061204600F0A4FC01224FF4805109
:10230400204600F09EFC584B1B6800225A639A63D7
:102314009A634FF40041564800F08CFC0646554D34
:102324000821284600F086FC04464FF480612846C4
:1023340000F080FC640044EA860464B2204340B2A6
:1023440001380528E5D801A353F820F0E522000858
:10235400692300089D230008D123000805240008F0
:1023640039240008414C01224FF48061204600F0DA
:1023740068FC01224FF40061204600F062FC002258
:102384004FF48051204600F05CFC374B1B68002260
:102394005A639A639A63BCE7344C00224FF4806119
:1023A400204600F04EFC01224FF40061204600F06C
:1023B40048FC01224FF48051204600F042FC2A4B95
:1023C4001B6800225A639A639A63A2E7274C00228F
:1023D4004FF48061204600F034FC01224FF4006188
:1023E400204600F02EFC01224FF48051204600F0DC
:1023F40028FC1D4B1B6800225A639A639A6388E782
:102404001A4C01224FF48061204600F01AFC01228C
:102414004FF40061204600F014FC00224FF4805178
:10242400204600F00EFC104B1B6800225A639A638E
:102434009A636EE70D4C01224FF48061204600F050
:1024440000FC00224FF40061204600F0FAFB012258
:102454004FF48051204600F0F4FB034B1B6800222C
:102464005A639A639A6354E7A00800200008024064
:10247400000002400004024000B583B00021009136
:102484000C4B5A6C42F480425A645A6C02F48042F7
:102494000092009A01911A6C42F080521A641B6CEB
:1024A40003F080530193019B072000F071FA03B0FD
:1024B4005DF804FB00380240FEE7FEE7FEE7FEE7B6
:1024C400FEE770477047704708B500F04FFA08BD43
:1024D40008B5024801F03EF808BD00BFE00800203E
:1024E4000120704708B5FEF7CFFF162303604FF0B5
:1024F400FF3008BD08B54FF0FF31FFF7F3FFFEE7EB
:1025040008B50D4B1B685BB10B4B1A6813180B48CD
:102514000B49091A994207D307490B60104608BDB5
:10252400084A054B1A60EFE7FEF7AEFF0C23036081
:102534004FF0FF3008BD00BF9C08002000040000DD
:1025440000000220680900204FF00062014B9A60ED
:10255400704700BF00ED00E000B58BB00023069388
:1025640007930893099302930393049305930093A9
:1025740001931C484FF080420260436083604FF037
:10258400FF32C2600361836101F008F9F0B90AA95E
:102594004FF4805341F8103D124801F032FAC0B9AB
:1025A4000023029303930493059302A90D4801F0B9
:1025B400CCFA88B950230093002301936946094853
:1025C40001F022FB58B90BB05DF804FBFFF70CFED9
:1025D400DDE7FFF709FEE3E7FFF706FEEAE7FFF7AB
:1025E40003FEF0E7E00800200268094B9A4200D09D
:1025F400704782B000230193064B5A6C42F00102EB
:102604005A645B6C03F001030193019B02B0EFE792
:10261400000001400038024070B588B000230393E5
:1026240004930593069307930368B3F1804F01D095
:1026340008B070BD0024009403F50E331A6C42F008
:1026440001021A641A6C02F001020092009A0194C9
:102654001A6B42F002021A631A6B02F00202019230
:10266400019A02941A6B42F001021A631B6B03F085
:1026740001030293029B4FF48163039302260496A1
:102684000125079503A90B4800F0EAF94FF400432C
:102694000393049605940694079503A9064800F04D
:1026A400DFF9224621461C2000F084F91C2000F0AA
:1026B400B3F9BDE7000402400000024000B587B052
:1026C40000230193029303930493059302680F4B31
:1026D4009A4202D007B05DF804FB002300930C4B30
:1026E4001A6B42F001021A631B6B03F0010300939F
:1026F400009B4FF4E06301930223029301230593AB
:1027040001A9044800F0ACF9E4E700BF000001406F
:10271400003802400000024010B592B0002410942A
:10272400119409940A940B940C940D940E940F94A0
:102734002022214601A8FEF789FF2C482C4B036078
:10274400446084604FF6FF73C36004614461846134
:1027540001F03DF8002836D100231093119310A9FD
:10276400224801F051FA002830D160230993002255
:102774000A920B920C920D920E920F9209A91B4889
:1027840001F078F828BB042209A9184801F072F86E
:1027940010BB082209A9154801F06CF8F8B9002308
:1027A400019302930393049305934FF4005206920A
:1027B400089301A90D4801F06BFA98B90B48FFF78B
:1027C4007DFF12B010BDFFF70FFDC5E7FFF70CFD4D
:1027D400CBE7FFF709FDD6E7FFF706FDD9E7FFF7DB
:1027E40003FDDCE7FFF700FDE8E700BFA0080020D9
:1027F4000000014008B50A480A4B03604FF4E13376
:10280400436000238360C36003610C2242618361DF
:10281400C36101F053FB00B908BDFFF7E5FCFBE71A
:10282400200900200044004000B589B00023039330
:1028340004930593069307930268154B9A4202D0BA
:1028440009B05DF804FB0021019103F5FA331A6C19
:1028540042F400321A641A6C02F400320192019AB2
:1028640002911A6B42F001021A631B6B03F001031D
:102874000293029B0C2303930223049303230693E2
:102884000723079303A9034800F0EAF8D8E700BF39
:102894000044004000000240DFF834D0002103E08F
:1028A4000C4B5B58435004310B480C4B42189A4272
:1028B400F6D30B4A02E0002342F8043B094B9A4248
:1028C400F9D3FFF741FEFEF7FFFDFFF7E7FC704782
:1028D4000000022060400008000000204C08002096
:1028E4004C08002068090020FEE7000010B50446EB
:1028F4000E4B18784FF47A73B3FBF0F30C4A10685C
:10290400B0FBF3F000F096F868B90F2C01D9012060
:1029140010BD002221464FF0FF3000F04BF8054B6C
:102924001C60002010BD012010BD00BF4408002021
:10293400400800204808002008B50B4B1A6842F4F0
:1029440000721A601A6842F480621A601A6842F4CB
:1029540080721A60032000F01BF80020FFF7C6FF06
:10296400FFF78AFD002008BD003C0240034A1168BD
:10297400034B1B780B441360704700BF60090020B1
:1029840044080020014B1868704700BF600900200C
:10299400074AD36823F4E0631B041B0C000200F411
:1029A400E060184340F0BF6040F40030D0607047EE
:1029B40000ED00E030B4164BDB68C3F30223C3F12F
:1029C4000704042C28BF04241D1D062D17D9033B1E
:1029D400012505FA04F4013C2140994005FA03F36A
:1029E400013B1340194300280BDB0901C9B200F174
:1029F400604000F5614080F8001330BC704700234C
:102A0400E6E700F00F000901C9B2024B1954F4E7DC
:102A140000ED00E014ED00E0002808DB420900F0BE
:102A24001F00012303FA00F0014B43F82200704712
:102A340000E100E00138B0F1807F0AD2064B586013
:102A4400F021064A82F823100020986007221A60B9
:102A540070470120704700BF10E000E000ED00E087
:102A640000230F2B00F2DA80F0B583B09EE0856876
:102A74004FEA430E032707FA0EF725EA0705CE6847
:102A840006FA0EF635438560456825EA02024D686C
:102A9400C5F300159D402A434260C6685F000322C7
:102AA400BA40D24316408D68BD402E43C6604D687F
:102AB400022D00F08D80122D00F08A8005682A40D6
:102AC4004D6805F00305BD402A4302604A6812F0D0
:102AD400805F68D000220192514A556C45F48045CC
:102AE4005564526C02F480420192019A9A08961C31
:102AF4004C4D55F8265003F003064FEA860E0F2678
:102B040006FA0EF625EA0605474FB84278D0474E36
:102B1400B04277D006F58066B04275D006F580667F
:102B2400B04273D006F58066B04271D006F5806677
:102B3400B0426FD006F58066B0425FD0072606FA31
:102B44000EF635430232374E46F82250384A15689D
:102B5400E24305EA02064F6817F4803F01D044EAD5
:102B64000506334D2E606D6802EA05064F6817F4BA
:102B7400003F01D044EA05062D4D6E60AD6802EABF
:102B840005064F6817F4801F01D044EA0506284D56
:102B9400AE60ED682A404E6816F4001F01D044EA86
:102BA4000502234CE26001330F2B35D801229A40F1
:102BB4000C681440A242F6D14D686E1E012E7FF6B9
:102BC40056AF112D3FF453AF122D7FF466AF4EE78D
:102BD4004FEAD30C0CF1080C50F82C5003F0070EFC
:102BE4004FEA8E0E0F2606FA0EF625EA06050E6942
:102BF40006FA0EF6354340F82C505FE706269EE7AA
:102C040000269CE701269AE7022698E7032696E722
:102C1400042694E7052692E703B0F0BD704700BF91
:102C24000038024000380140000002400004024025
:102C3400003C01400369194201D100207047012082
:102C4400704712B9090481617047816170470000BF
:102C540010B582B000230193194B1A6C42F08052D4
:102C64001A641B6C03F080530193019B0122154BE2
:102C74001A60FFF787FE0446134B5B6813F4803F2A
:102C840008D1FFF77FFE001BB0F57A7FF4D903204B
:102C940002B010BD01220D4B1A60FFF773FE04460B
:102CA400094B5B6813F4003F07D1FFF76BFE001B71
:102CB400B0F57A7FF4D90320EAE70020E8E700BF03
:102CC4000038024040000E420070004044000E42B2
:102CD400002800F09E8070B50446504B1B6803F03A
:102CE4000F038B4209D2CBB24C4A1370136803F022
:102CF4000F03994201D0012070BD236813F0020F25
:102D040017D013F0040F04D0454A936843F4E053FA
:102D14009360236813F0080F04D0414A936843F486
:102D2400604393603E4A936823F0F003A068034332
:102D340093600D46236813F0010F32D06368012BB2
:102D440021D09A1E012A25D9354A126812F0020FA1
:102D540061D033498A6822F0030213438B60FFF782
:102D640011FE06462E4B9B6803F00C036268B3EB1E
:102D7400820F16D0FFF706FE801B41F2883398427B
:102D8400F0D9032070BD264A126812F4003FE0D146
:102D9400012070BD224A126812F0007FD9D10120AF
:102DA40070BD1E4B1B6803F00F039D4209D2EAB2AB
:102DB4001A4B1A701B6803F00F039D4201D00120C7
:102DC40070BD236813F0040F06D0154A936823F4EA
:102DD400E053E1680B439360236813F0080F07D0B6
:102DE4000F4A936823F46043216943EAC103936063
:102DF40000F044F80A4B9B68C3F30313094AD35CFD
:102E0400D840094B1860094B1868FFF76FFD002084
:102E140070BD01207047012070BD00BF003C02401E
:102E240000380240503F00084008002048080020B5
:102E3400014B1868704700BF4008002008B5FFF731
:102E4400F7FF044B9B68C3F38223034AD35CD84047
:102E540008BD00BF00380240603F000808B5FFF716
:102E6400E7FF044B9B68C3F34233034AD35CD84067
:102E740008BD00BF00380240603F0008F8B55C4B55
:102E84009B6803F00C03082B06D00C2B5AD0042BA0
:102E940000F0AC805748F8BD554B5A6802F03F0229
:102EA4005B6813F4800F2AD0514B5B68C3F388131B
:102EB4001E4600275C010025E41A65EB0705A901FD
:102EC40041EA9461A001001B61EB0501CB0043EAD8
:102ED4005073C400A01943EB07014B0243EAD053DB
:102EE4004402204619460023FDF7BCF9404B5B68B9
:102EF400C3F3014301335B00B0FBF3F0F8BD3C4B7B
:102F04005B68C3F388131E4600275C010025E41A9E
:102F140065EB0705A90141EA9461A001001B61EB7F
:102F24000501CB0043EA5073C400A01943EB070129
:102F34008B0243EA90538402204619460023FDF78E
:102F440091F9D3E72A4B5A6802F03F025B6813F405
:102F5400800F28D0264B5B68C3F388131E460027D6
:102F64005C010025E41A65EB0705A90141EA9461B7
:102F7400A001001B61EB0501CB0043EA5073C400C0
:102F8400A01943EB07014B0243EAD0534402204605
:102F940019460023FDF766F9154B5B68C3F302730A
:102FA400B0FBF3F0F8BD124B5B68C3F388131E4605
:102FB40000275C010025E41A65EB0705A90141EA35
:102FC4009461A001001B61EB0501CB0043EA50733F
:102FD400C400A01943EB07018B0243EA9053840217
:102FE400204619460023FDF73DF9D5E70248F8BD10
:102FF400003802400024F40000127A0070B582B058
:103004000446036813F0010F41D0A64B9B6803F0FC
:103014000C03042B32D0A34B9B6803F00C03082B46
:1030240027D0A04B9B6803F00C030C2B59D063688A
:10303400B3F5803F5BD0B3F5A02F5ED0994B1A68EF
:1030440022F480321A601A6822F480221A606368BB
:10305400002B5CD0FFF796FC0546924B1B6813F4DB
:10306400003F14D1FFF78EFC401B6428F5D90320E0
:103074009DE18C4B5B6813F4800FD2D0894B1B68A5
:1030840013F4003F03D06368002B00F08D812368A4
:1030940013F0020F67D0834B9B6813F00C0F4AD0D8
:1030A400804B9B6803F00C03082B3FD07D4B9B683F
:1030B40003F00C030C2B48D0E368002B74D00122DE
:1030C400794B1A60FFF75EFC0546764B1B6813F0DC
:1030D400020F60D1FFF756FC401B0228F5D90320EC
:1030E40065E1704B5B6813F4800FA0D0C6E76D4AAE
:1030F400136843F480331360A9E76A4B1A6842F4F7
:1031040080221A601A6842F480321A609FE7FFF73F
:1031140039FC0546634B1B6813F4003FB7D0FFF737
:1031240031FC401B6428F5D9032040E15D4B5B680A
:1031340013F4800FBAD15B4B1B6813F0020F0AD053
:10314400E368012B07D0012031E1564B5B6813F48F
:10315400800FB1D1EFE7534A136823F0F8032169D4
:1031640043EAC1031360236813F0080F40D0636976
:1031740063B301224D4B1A60FFF704FC0546494B2B
:103184005B6F13F0020F33D1FFF7FCFB401B0228E7
:10319400F5D903200BE1434A136823F0F8032169AE
:1031A40043EAC1031360DEE700223F4B1A60FFF7D6
:1031B400E9FB05463B4B1B6813F0020FD3D0FFF726
:1031C400E1FB401B0228F5D90320F0E00022374B35
:1031D4001A60FFF7D7FB0546324B5B6F13F0020F03
:1031E40006D0FFF7CFFB401B0228F5D90320DEE011
:1031F400236813F0040F79D02A4B1B6C13F0805F03
:1032040033D100230193274B1A6C42F080521A6485
:103214001B6C03F080530193019B0125244B1B6815
:1032240013F4807F23D0A368012B34D0052B41D025
:103234001C4B1A6F22F001021A671A6F22F0040263
:103244001A67A368002B3FD0FFF79CFB0646154B7B
:103254001B6F13F0020F48D1FFF794FB801B41F260
:1032640088339842F3D90320A1E00025D6E7104A19
:10327400136843F480731360FFF784FB06460C4B1A
:103284001B6813F4807FCED1FFF77CFB801B0228E0
:10329400F5D903208BE0034A136F43F0010313674E
:1032A400CFE700BF0038024000004742800E47428B
:1032B40000700040404B1A6F42F004021A671A6F04
:1032C40042F001021A67BCE7FFF75CFB06463A4B83
:1032D4001B6F13F0020F08D0FFF754FB801B41F261
:1032E40088339842F3D9032061E0E5B9A369002B40
:1032F4005CD0314A926802F00C02082A59D0022BA1
:1033040017D000222D4B1A60FFF73CFB04462A4BD2
:103314001B6813F0007F45D0FFF734FB001B022825
:10332400F5D9032043E0244A136C23F0805313643B
:10333400DCE70022214B1A60FFF724FB05461E4BF5
:103344001B6813F0007F06D0FFF71CFB401B02280C
:10335400F5D903202BE0E369226A1343626A43EA46
:103364008213A26A5208013A43EA0243E26A43EA38
:103374000263226B43EA02730F4A536001220F4B2C
:103384001A60FFF7FFFA04460B4B1B6813F0007F2B
:1033940006D1FFF7F7FA001B0228F5D9032006E04F
:1033A400002004E0002002E0012000E0002002B040
:1033B40070BD0120FBE700BF0038024060004742B7
:1033C40030B4036A23F001030362036A4468826928
:1033D40022F073020D682A4323F002038D682B4305
:1033E400114DA84211D005F58065A8420DD00E4DAF
:1033F400A84211D005F58065A8420DD044608261D1
:103404004A684263036230BC704723F00803CD6806
:103414002B4323F00403EAE724F440744D692C435E
:103424008D692C43EAE700BF0000014030B4036A11
:1034340023F480730362036A4468C26922F073024E
:103444000D682A4323F400738D6843EA0523134D62
:10345400A84211D005F58065A8420DD00F4DA842B1
:1034640012D005F58065A8420ED04460C2614A6856
:10347400C263036230BC704723F40063CD6843EA3F
:10348400052323F48063E9E724F440544D6944EAB6
:1034940005148D6944EA0514E7E700BF0000014004
:1034A40030B4036A23F480530362036A4468C26934
:1034B40022F4E6420D6842EA052223F400538D68A3
:1034C40043EA0533094DA8420AD005F58065A842B0
:1034D40006D04460C2614A680264036230BC70472B
:1034E40024F480444D6944EA8514F2E70000014065
:1034F40010B4036A046A24F001040462846924F0A9
:10350400F00444EA021223F00A030B4382610362CB
:1035140010BC704710B4036A23F01003036284697B
:10352400036A24F4704444EA023223F0A00343EA19
:1035340001138261036210BC7047836823F0700337
:10354400194341F007018160704770477047704725
:103554007047704710B5044603681A6912F0020FE9
:1035640011D0DA6812F0020F0DD06FF002021A6166
:103574000123037703689B6913F0030F70D0FFF7EF
:10358400E6FF0023237723681A6912F0040F12D090
:10359400DA6812F0040F0ED06FF004021A610223ED
:1035A400237723689B6913F4407F5FD02046FFF79D
:1035B400CEFF0023237723681A6912F0080F12D074
:1035C400DA6812F0080F0ED06FF008021A610423B3
:1035D40023772368DB6913F0030F4ED02046FFF7EF
:1035E400B6FF0023237723681A6912F0100F12D054
:1035F400DA6812F0100F0ED06FF010021A6108236F
:1036040023772368DB6913F4407F3DD02046FFF71E
:103614009EFF0023237723681A6912F0010F03D059
:10362400DA6812F0010F36D123681A6912F0800F9C
:1036340003D0DA6812F0800F34D123681A6912F0CB
:10364400400F03D0DA6812F0400F32D123681A69B0
:1036540012F0200F03D0DA6812F0200F30D110BD21
:10366400FFF774FF2046FFF773FF8AE72046FFF752
:103674006DFF2046FFF76CFF9BE72046FFF766FFD0
:103684002046FFF765FFACE72046FFF75FFF2046C3
:10369400FFF75EFFBDE76FF001021A612046FFF7F6
:1036A40054FFC1E76FF080021A61204600F01AFB54
:1036B400C3E76FF040021A612046FFF74AFFC5E7EF
:1036C4006FF020021A61204600F00BFBC7E70000F0
:1036D4000368314A904212D0B0F1804F0FD0A2F566
:1036E4007C4290420BD002F58062904207D002F5F2
:1036F4008062904203D002F57842904203D123F0D5
:1037040070034A681343244A90422AD0B0F1804F90
:1037140027D0A2F57C42904223D002F580629042E9
:103724001FD002F5806290421BD002F5784290428D
:1037340017D002F57052904213D002F58062904285
:103744000FD002F5806290420BD0A2F598329042DD
:1037540007D002F58062904203D002F58062904265
:1037640003D123F44073CA68134323F080034A69E6
:10377400134303608B68C3620B688362064B9842F1
:1037840006D003F58063984202D001234361704759
:103794000B690363F9E700BF00000140A8B110B54D
:1037A400044690F83D305BB1022384F83D30211D7E
:1037B4002068FFF78DFF012384F83D30002010BD01
:1037C40080F83C30FEF728FFEEE701207047A8B1EF
:1037D40010B5044690F83D305BB1022384F83D30C7
:1037E400211D2068FFF774FF012384F83D30002079
:1037F40010BD80F83C30FEF7F7FEEEE7012070477D
:1038040030B4036A23F010030362036A44688269D4
:1038140022F4E6420D6842EA052223F020038D6873
:1038240043EA0513124DA84211D005F58065A8425C
:103834000DD00F4DA84212D005F58065A8420ED0D8
:10384400446082614A688263036230BC704723F03B
:103854008003CD6843EA051323F04003E9E724F429
:1038640040644D6944EA85048D6944EA8504E7E7C8
:103874000000014038B590F83C30012B66D00D466D
:103884000446012380F83C30022380F83D300C2AA2
:103894001AD8DFE802F0071919192019191934196F
:1038A400191947000068FFF78BFD2268936943F0FC
:1038B400080393612268936923F0040393612268E7
:1038C400936929690B439361012384F83D300020F7
:1038D40084F83C0038BD0068FFF792FF22689369C2
:1038E40043F4006393612268936923F480639361D2
:1038F40022689369296943EA01239361E4E7006834
:10390400FFF794FD2268D36943F00803D36122686A
:10391400D36923F00403D3612268D36929690B4373
:10392400D361D1E70068FFF7BBFD2268D36943F494
:103934000063D3612268D36923F48063D36122686E
:10394400D369296943EA0123D361BDE7022038BD65
:1039540070B4046A24F0010404628469056A224E86
:10396400B0422ED0B0F1804F2DD0A6F57C46B042A7
:103974002BD006F58066B04229D006F58066B042A9
:1039840027D006F57846B04225D006F57056B042E9
:1039940023D0A6F59436B04211D00026FEB944F0E7
:1039A400010222F0F0021B01DBB2134325F00A02EC
:1039B40001F00A0111438361016270BC7047012662
:1039C400ECE70126EAE70126E8E70126E6E7012617
:1039D400E4E70126E2E70126E0E70126DEE724F03A
:1039E40003042243DDE700BF0000014010B48468F3
:1039F40024F47F4442EA032319430C43846010BC3B
:103A0400704790F83C30012B66D010B50446012372
:103A140080F83C30022380F83D300268936823F438
:103A24007F4323F0770393600B68402B4AD013D96C
:103A3400602B3DD01ED9702B28D0B3F5005F30D158
:103A4400CB684A6889680068FFF7D0FF22689368EA
:103A540043F48043936024E0102B06D004D9202B38
:103A640003D0302B01D01CE0DBB919462068FFF7E6
:103A740064FD16E0502B14D1CA6849680068FFF74A
:103A840037FD50212068FFF758FD0AE0CB684A68EB
:103A940089680068FFF7AAFF2268936843F07703F8
:103AA4009360012384F83D30002084F83C0010BD6D
:103AB400CA6849680068FFF72DFD60212068FFF798
:103AC4003CFDEEE7CA6849680068FFF711FD402134
:103AD4002068FFF732FDE4E70220704710B401F0DC
:103AE4001F01012303FA01F4036A23EA04030362B6
:103AF400036A8A401343036210BC704710B504463E
:103B040001220068FFF7EAFF23680E4A934217D0A8
:103B140002F58062934211D000221AB15A6C42F429
:103B240000425A642268936803F00703062B03D00B
:103B3400136843F001031360002010BD0122ECE779
:103B44000122EAE700000140704700285AD070B50E
:103B540088B004460E4690F83D30002B4DD0022329
:103B640084F83D30211D2068FFF7B2FDB3680322BD
:103B740031682068FFF7ECFE2268936923F00C0398
:103B840093612268936971680B4393612268536857
:103B940043F0800353602268936823F070039360BA
:103BA4002268936843F0400393602268936823F08B
:103BB400070393602268936843F00403936000252D
:103BC4000595069570230193079504950395F3686D
:103BD400029301A92068FFF713FE2268536823F0BB
:103BE400700353602268536843F050035360012309
:103BF40084F83D30284608B070BD80F83C30FFF7AB
:103C0400A3FFACE70120704790F83C30012B3BD078
:103C140030B4012380F83C30022380F83D3004683E
:103C24006368A26823F070030D682B436360036824
:103C3400164CA3421AD0B3F1804F17D0A4F57C449C
:103C4400A34213D004F58064A3420FD004F580642A
:103C5400A3420BD004F57844A34207D004F5705472
:103C6400A34203D0A4F59434A34204D122F08002E9
:103C740049680A439A60012380F83D30002380F8A4
:103C84003C30184630BC70470220704700000140A9
:103C940090F83C30012B22D0012380F83C30CB68D3
:103CA40023F440738A68134323F480634A681343FC
:103CB40023F400630A68134323F480530A6913430B
:103CC40023F400534A69134323F48043CA6913431A
:103CD40002685364002380F83C3018467047022081
:103CE4007047704770470000F8B5044602681369CE
:103CF40023F44053C1680B4313618368026913437F
:103D040042691343C26913430168CA6822F4164224
:103D140022F00C021343CB600268536923F440730E
:103D240081690B435361C369B3F5004F34D0036811
:103D3400604A934200F0928002F58062934200F060
:103D44008D80FFF77BF825680021061841EB0107F9
:103D540036184F41FB0043EA5673F20016461F46DD
:103D640063689A009B0F80197941FCF77BFA524CE7
:103D7400A4FB00325109642202FB11021301323305
:103D8400A4FB03235B0903F0F00202EB011203F02E
:103D94000F031344AB60F8BD0368464A934230D026
:103DA40002F5806293422CD0FFF748F82568002181
:103DB400061841EB010736184F41FB0043EA5673DE
:103DC400F20016461F466268002392185B41801970
:103DD4007941FCF747FA384CA4FB003251096422BC
:103DE40002FB1102D3003233A4FB03235B095A0004
:103DF40002F4F87202EB011203F007031344AB6000
:103E0400F8BDFFF72BF825680021061841EB0107E0
:103E140036184F41FB0043EA5673F20016461F461C
:103E24006268002392185B4180197941FCF71AFA01
:103E3400214CA4FB00325109642202FB1102D3007D
:103E44003233A4FB03235B095A0002F4F87202EB39
:103E5400011203F007031344AB60F8BDFEF7FEFF45
:103E640025680021061841EB010736184F41FB0075
:103E740043EA5673F20016461F4663689A009B0F86
:103E840080197941FCF7EEF90B4CA4FB003251097F
:103E9400642202FB110213013233A4FB03235B09E6
:103EA40003F0F00202EB011203F00F031344AB60C2
:103EB400F8BD00BF001001401F85EB5158B310B589
:103EC400044690F839300BB3242384F8393022683F
:103ED400D36823F40053D3602046FFF705FF22681C
:103EE400136923F4904313612268536923F02A036E
:103EF40053612268D36843F40053D3600020E06325
:103F0400202384F8393084F83A3010BD80F83830F2
:103F1400FEF78AFCD8E7012070470000024B13B17A
:103F24000248FDF7ABBA704700000000991400087E
:103F3400F8B500BFF8BC08BC9E467047F8B500BF92
:083F4400F8BC08BC9E46704762
:103F4C000800002000000000000000000102030433
:103F5C0006070809000000000102030443000000EA
:103F6C0008B10181B0B000840000000008B10181EB
:083F7C00B0B000840000000059
:103F840014C3FF7F0100000084C6FF7FB0A9028034
:103F94001CC7FF7FB0B0A8806CC7FF7F0100000082
:103FA40078C7FF7FB0B0AA80B0C7FF7FAE71B28080
:103FB40080C8FF7F010000007CC8FF7FAB3F3880D2
:103FC400D4C8FF7F01000000E0C8FF7FB0B0AA8022
:103FD4001CC9FF7F01000000D0C9FF7FAB0EB28077
:103FE40038CAFF7FB0AF0A8000CDFF7F0100000018
:103FF40004CDFF7FAB3F048044CFFF7F010000006E
:1040040020D1FF7F0084048034D1FF7F01000000B1
:1040140030D1FF7FB0AD0480F8D3FF7FB0A8038018
:1040240018D4FF7F44FFFF7F1CD4FF7F48FFFF7F2E
:1040340028D4FF7F01000000B4E1FF7F00841480D6
:104044005CE2FF7FB0B0AA8030E4FF7F0100000093
:08405400213F000831020008C1
:04405C00090200084D
:10406000080000200000000000000000F402002012
:104070005C030020C40300200000000000000000DA
:104080000000000000000000000000000000000030
:10409000000000000000000000000000683F000871
:1040A0000000000000000000000000000000000010
:1040B0000000000000000000000000000000000000
:1040C00000000000000000000000000000000000F0
:1040D00000000000000000000000000000000000E0
:1040E00000000000000000000000000000000000D0
:1040F00000000000000000000000000000000000C0
:1041000000000000000000000000000000000000AF
:1041100001000000000000000E33CDAB34126DE64C
:10412000ECDE05000B0000000000000000000000B5
:10413000000000000000000000000000000000007F
:10414000000000000000000000000000000000006F
:10415000000000000000000000000000000000005F
:10416000000000000000000000000000000000004F
:104490000000000000000000300400203004002074
:1044A000380400203804002040040020400400208C
:1044B000480400204804002050040020500400203C
:1044C00058040020580400206004002060040020EC
:1044D000680400206804002070040020700400209C
:1044E000780400207804002080040020800400204C
:1044F00088040020880400209004002090040020FC
:104500009804002098040020A0040020A0040020AB
:10451000A8040020A8040020B0040020B00400205B
:10452000B8040020B8040020C0040020C00400200B
:10453000C8040020C8040020D0040020D0040020BB
:10454000D8040020D8040020E0040020E00400206B
:10455000E8040020E8040020F0040020F00400201B
:10456000F8040020F80400200005002000050020C9
:104570000805002008050020100500201005002077
:104580001805002018050020200500202005002027
:1045900028050020280500203005002030050020D7
:1045A0003805002038050020400500204005002087
:1045B0004805002048050020500500205005002037
:1045C00058050020580500206005002060050020E7
:1045D0006805002068050020700500207005002097
:1045E0007805002078050020800500208005002047
:1045F00088050020880500209005002090050020F7
:104600009805002098050020A0050020A0050020A6
:10461000A8050020A8050020B0050020B005002056
:10462000B8050020B8050020C0050020C005002006
:10463000C8050020C8050020D0050020D0050020B6
:10464000D8050020D8050020E0050020E005002066
:10465000E8050020E8050020F0050020F005002016
:10466000F8050020F80500200006002000060020C4
:104670000806002008060020100600201006002072
:104680001806002018060020200600202006002022
:1046900028060020280600203006002030060020D2
:1046A0003806002038060020400600204006002082
:1046B0004806002048060020500600205006002032
:1046C00058060020580600206006002060060020E2
:1046D0006806002068060020700600207006002092
:1046E0007806002078060020800600208006002042
:1046F00088060020880600209006002090060020F2
:104700009806002098060020A0060020A0060020A1
:10471000A8060020A8060020B0060020B006002051
:10472000B8060020B8060020C0060020C006002001
:10473000C8060020C8060020D0060020D0060020B1
:10474000D8060020D8060020E0060020E006002061
:10475000E8060020E8060020F0060020F006002011
:10476000F8060020F80600200007002000070020BF
:10477000080700200807002010070020100700206D
:10478000180700201807002020070020200700201D
:1047900028070020280700203007002030070020CD
:1047A000380700203807002040070020400700207D
:1047B000480700204807002050070020500700202D
:1047C00058070020580700206007002060070020DD
:1047D000680700206807002070070020700700208D
:1047E000780700207807002080070020800700203D
:1047F00088070020880700209007002090070020ED
:104800009807002098070020A0070020A00700209C
:10481000A8070020A8070020B0070020B00700204C
:10482000B8070020B8070020C0070020C0070020FC
:10483000C8070020C8070020D0070020D0070020AC
:10484000D8070020D8070020E0070020E00700205C
:10485000E8070020E8070020F0070020F00700200C
:10486000F8070020F80700200008002000080020BA
:104870000808002008080020100800201008002068
:104880001808002018080020200800202008002018
:104890002808002028080020FFFFFFFF000002007A
:0C48A0000024F4000100000010000000E3
:040000050800289D2A
:00000001FF
